{
  "contractName": "AaveClone",
  "abi": [
    {
      "inputs": [
        {
          "internalType": "address",
          "name": "",
          "type": "address"
        }
      ],
      "name": "balances",
      "outputs": [
        {
          "internalType": "uint256",
          "name": "",
          "type": "uint256"
        }
      ],
      "stateMutability": "view",
      "type": "function"
    },
    {
      "inputs": [],
      "name": "deposit",
      "outputs": [],
      "stateMutability": "payable",
      "type": "function"
    },
    {
      "inputs": [
        {
          "internalType": "uint256",
          "name": "amount",
          "type": "uint256"
        }
      ],
      "name": "withdraw",
      "outputs": [],
      "stateMutability": "nonpayable",
      "type": "function"
    },
    {
      "inputs": [],
      "name": "getBalance",
      "outputs": [
        {
          "internalType": "uint256",
          "name": "",
          "type": "uint256"
        }
      ],
      "stateMutability": "view",
      "type": "function"
    }
  ],
  "bytecode": "0x6080604052348015600e575f5ffd5b5061024d8061001c5f395ff3fe60806040526004361061003e575f3560e01c806312065fe01461004257806327e235e3146100705780632e1a7d4d1461009b578063d0e30db0146100bc575b5f5ffd5b34801561004d575f5ffd5b50335f908152602081905260409020545b60405190815260200160405180910390f35b34801561007b575f5ffd5b5061005e61008a366004610193565b5f6020819052908152604090205481565b3480156100a6575f5ffd5b506100ba6100b53660046101c0565b6100c4565b005b6100ba61016e565b335f9081526020819052604090205481111561011d5760405162461bcd60e51b8152602060048201526014602482015273496e73756666696369656e742062616c616e636560601b604482015260640160405180910390fd5b335f908152602081905260408120805483929061013b9084906101eb565b9091555050604051339082156108fc029083905f818181858888f1935050505015801561016a573d5f5f3e3d5ffd5b5050565b335f908152602081905260408120805434929061018c908490610204565b9091555050565b5f602082840312156101a3575f5ffd5b81356001600160a01b03811681146101b9575f5ffd5b9392505050565b5f602082840312156101d0575f5ffd5b5035919050565b634e487b7160e01b5f52601160045260245ffd5b818103818111156101fe576101fe6101d7565b92915050565b808201808211156101fe576101fe6101d756fea2646970667358221220132956db7df49eccb5dfc40bc7e9af18aeb13093359232d14f7239652abce1b264736f6c634300081b0033",
  "immutableReferences": {},
  "source": "// SPDX-License-Identifier: MIT\npragma solidity ^0.8.27;\ncontract AaveClone {\n    mapping(address => uint256) public balances;\n\n    function deposit() public payable {\n        balances[msg.sender] += msg.value;\n    }\n\n    function withdraw(uint256 amount) public {\n        require(balances[msg.sender] >= amount, \"Insufficient balance\");\n        balances[msg.sender] -= amount;\n        payable(msg.sender).transfer(amount);\n    }\n\n    function getBalance() public view returns (uint256) {\n        return balances[msg.sender];\n    }\n\n}\n",
  "sourcePath": "/home/oliver/Proyects/my-truffle-project/aave-clone/contracts/AaveClone.sol",
  "compiler": {
    "name": "solc",
    "version": "0.8.27+commit.40a35a09.Emscripten.clang"
  },
  "schemaVersion": "3.4.16",
  "updatedAt": "2024-10-03T11:00:27.465Z",
  "devdoc": {
    "kind": "dev",
    "methods": {},
    "version": 1
  },
  "userdoc": {
    "kind": "user",
    "methods": {},
    "version": 1
  }
}