{
  "contractName": "LendingProtocol",
  "abi": [
    {
      "inputs": [
        {
          "internalType": "contract IERC20",
          "name": "_token",
          "type": "address"
        },
        {
          "internalType": "contract InterestManager",
          "name": "_interestManager",
          "type": "address"
        },
        {
          "internalType": "contract ChainlinkOracle",
          "name": "_oracle",
          "type": "address"
        }
      ],
      "stateMutability": "nonpayable",
      "type": "constructor"
    },
    {
      "inputs": [
        {
          "internalType": "address",
          "name": "",
          "type": "address"
        }
      ],
      "name": "collaterals",
      "outputs": [
        {
          "internalType": "uint256",
          "name": "",
          "type": "uint256"
        }
      ],
      "stateMutability": "view",
      "type": "function"
    },
    {
      "inputs": [],
      "name": "interestManager",
      "outputs": [
        {
          "internalType": "contract InterestManager",
          "name": "",
          "type": "address"
        }
      ],
      "stateMutability": "view",
      "type": "function"
    },
    {
      "inputs": [
        {
          "internalType": "address",
          "name": "",
          "type": "address"
        }
      ],
      "name": "loanStartTimes",
      "outputs": [
        {
          "internalType": "uint256",
          "name": "",
          "type": "uint256"
        }
      ],
      "stateMutability": "view",
      "type": "function"
    },
    {
      "inputs": [
        {
          "internalType": "address",
          "name": "",
          "type": "address"
        }
      ],
      "name": "loans",
      "outputs": [
        {
          "internalType": "uint256",
          "name": "",
          "type": "uint256"
        }
      ],
      "stateMutability": "view",
      "type": "function"
    },
    {
      "inputs": [],
      "name": "oracle",
      "outputs": [
        {
          "internalType": "contract ChainlinkOracle",
          "name": "",
          "type": "address"
        }
      ],
      "stateMutability": "view",
      "type": "function"
    },
    {
      "inputs": [],
      "name": "token",
      "outputs": [
        {
          "internalType": "contract IERC20",
          "name": "",
          "type": "address"
        }
      ],
      "stateMutability": "view",
      "type": "function"
    },
    {
      "inputs": [
        {
          "internalType": "uint256",
          "name": "amount",
          "type": "uint256"
        },
        {
          "internalType": "uint256",
          "name": "collateralAmount",
          "type": "uint256"
        }
      ],
      "name": "borrow",
      "outputs": [],
      "stateMutability": "nonpayable",
      "type": "function"
    },
    {
      "inputs": [
        {
          "internalType": "uint256",
          "name": "amount",
          "type": "uint256"
        }
      ],
      "name": "repay",
      "outputs": [],
      "stateMutability": "nonpayable",
      "type": "function"
    }
  ],
  "bytecode": "0x6080604052348015600e575f5ffd5b50604051610944380380610944833981016040819052602b916081565b5f80546001600160a01b039485166001600160a01b03199182161790915560018054938516938216939093179092556002805491909316911617905560c4565b6001600160a01b0381168114607e575f5ffd5b50565b5f5f5f606084860312156092575f5ffd5b8351609b81606b565b602085015190935060aa81606b565b604085015190925060b981606b565b809150509250925092565b610873806100d15f395ff3fe608060405234801561000f575f5ffd5b5060043610610085575f3560e01c80637dc0d1d0116100585780637dc0d1d014610102578063ee065e111461012d578063eeb97d3b14610140578063fc0c546a1461015f575f5ffd5b80630b25ed3d146100895780630ecbcdab146100bb578063371fd8e6146100d057806373b4086b146100e3575b5f5ffd5b6100a861009736600461072d565b60046020525f908152604090205481565b6040519081526020015b60405180910390f35b6100ce6100c936600461075a565b610171565b005b6100ce6100de36600461077a565b61043b565b6100a86100f136600461072d565b60036020525f908152604090205481565b600254610115906001600160a01b031681565b6040516001600160a01b0390911681526020016100b2565b600154610115906001600160a01b031681565b6100a861014e36600461072d565b60056020525f908152604090205481565b5f54610115906001600160a01b031681565b60025460408051638e15f47360e01b815290515f926001600160a01b031691638e15f4739160048083019260209291908290030181865afa1580156101b8573d5f5f3e3d5ffd5b505050506040513d601f19601f820116820180604052508101906101dc9190610791565b90505f6101e982846107bc565b9050838110156102665760405162461bcd60e51b815260206004820152603a60248201527f436f6c6c61746572616c2076616c7565206d757374206265206174206c65617360448201527f7420657175616c20746f20746865206c6f616e20616d6f756e7400000000000060648201526084015b60405180910390fd5b5f546040516323b872dd60e01b8152336004820152306024820152604481018590526001600160a01b03909116906323b872dd906064016020604051808303815f875af11580156102b9573d5f5f3e3d5ffd5b505050506040513d601f19601f820116820180604052508101906102dd91906107d9565b6103295760405162461bcd60e51b815260206004820152601a60248201527f436f6c6c61746572616c207472616e73666572206661696c6564000000000000604482015260640161025d565b335f90815260036020526040812080548692906103479084906107f8565b9091555050335f908152600560205260408120805485929061036a9084906107f8565b9091555050335f8181526004602081905260408083204290559154915163a9059cbb60e01b815290810192909252602482018690526001600160a01b03169063a9059cbb906044016020604051808303815f875af11580156103ce573d5f5f3e3d5ffd5b505050506040513d601f19601f820116820180604052508101906103f291906107d9565b6104355760405162461bcd60e51b8152602060048201526014602482015273131bd85b881d1c985b9cd9995c8819985a5b195960621b604482015260640161025d565b50505050565b335f908152600460205260408120546201518090610459904261080b565b610463919061081e565b600154335f9081526003602052604080822054905163efdd7c0760e01b8152600481019190915260248101849052929350916001600160a01b039091169063efdd7c0790604401602060405180830381865afa1580156104c5573d5f5f3e3d5ffd5b505050506040513d601f19601f820116820180604052508101906104e99190610791565b335f90815260036020526040812054919250906105079083906107f8565b9050808410156105705760405162461bcd60e51b815260206004820152602e60248201527f496e73756666696369656e7420616d6f756e7420746f207265706179206c6f6160448201526d1b88185b99081a5b9d195c995cdd60921b606482015260840161025d565b335f818152600360209081526040808320839055600491829052808320839055915491516323b872dd60e01b815290810192909252306024830152604482018390526001600160a01b0316906323b872dd906064016020604051808303815f875af11580156105e1573d5f5f3e3d5ffd5b505050506040513d601f19601f8201168201806040525081019061060591906107d9565b6106515760405162461bcd60e51b815260206004820152601960248201527f52657061796d656e74207472616e73666572206661696c656400000000000000604482015260640161025d565b335f818152600560205260408082208054908390559154905163a9059cbb60e01b815260048101939093526024830182905290916001600160a01b039091169063a9059cbb906044016020604051808303815f875af11580156106b6573d5f5f3e3d5ffd5b505050506040513d601f19601f820116820180604052508101906106da91906107d9565b6107265760405162461bcd60e51b815260206004820152601860248201527f436f6c6c61746572616c2072657475726e206661696c65640000000000000000604482015260640161025d565b5050505050565b5f6020828403121561073d575f5ffd5b81356001600160a01b0381168114610753575f5ffd5b9392505050565b5f5f6040838503121561076b575f5ffd5b50508035926020909101359150565b5f6020828403121561078a575f5ffd5b5035919050565b5f602082840312156107a1575f5ffd5b5051919050565b634e487b7160e01b5f52601160045260245ffd5b80820281158282048414176107d3576107d36107a8565b92915050565b5f602082840312156107e9575f5ffd5b81518015158114610753575f5ffd5b808201808211156107d3576107d36107a8565b818103818111156107d3576107d36107a8565b5f8261083857634e487b7160e01b5f52601260045260245ffd5b50049056fea2646970667358221220bec5ed52b96425d87960555e2a69711d816b598eb713f8aea93efa3acb46293f64736f6c634300081b0033",
  "immutableReferences": {},
  "source": "// SPDX-License-Identifier: MIT\npragma solidity ^0.8.27;\n\nimport \"@openzeppelin/contracts/token/ERC20/IERC20.sol\";\nimport \"./InterestManager.sol\";\nimport \"./ChainlinkOracle.sol\";\n\n/// @title LendingProtocol\n/// @dev Este contrato maneja los prstamos y los pagos de intereses.\ncontract LendingProtocol {\n    IERC20 public token;\n    InterestManager public interestManager;\n    ChainlinkOracle public oracle;\n    mapping(address => uint256)\n    public loans;\n    mapping(address => uint256)\n    public loanStartTimes;\n    mapping(address => uint256)\n    public collaterals;\n\n/// @dev Constructor que inicializa el contrato con la direccin del token ERC20, el contrato de gestin de intereses y el orculo.\n/// @param _token La direccin del contrato del token ERC20.\n/// @param _interestManager La direccin del contrato de gestin de intereses.\n/// @param _oracle La direccin del contrato del orculo.\n    constructor(IERC20 _token, InterestManager _interestManager, ChainlinkOracle _oracle) {\n        token = _token;\n        interestManager = _interestManager;\n        oracle = _oracle;\n    }\n\n/// @dev Permite a los usuarios pedir prestado tokens proporcionando un colateral.\n/// @param amount La cantidad de tokens a pedir prestado.\n/// @param collateralAmount La cantidad de tokens a proporcionar como colateral.\n    function borrow(uint256 amount, uint256 collateralAmount) public {\n        int assetPrice = oracle.getLatestPrice();\n        uint256 collateralValue = collateralAmount * uint256(assetPrice);\n        require(collateralValue >= amount, \"Collateral value must be at least equal to the loan amount\");\n        require(token.transferFrom(msg.sender, address(this), collateralAmount), \"Collateral transfer failed\");\n\n        loans[msg.sender] += amount;\n        collaterals[msg.sender] += collateralAmount;\n        loanStartTimes[msg.sender] = block.timestamp;\n        require(token.transfer(msg.sender, amount), \"Loan transfer failed\");\n    }\n\n/// @dev Permite a los usuarios devolver los tokens prestados junto con los intereses y recuperar su colateral.\n/// @param amount La cantidad de tokens a devolver.\n    function repay(uint256 amount) public {\n        uint256 loanDuration = (block.timestamp - loanStartTimes[msg.sender]) / 1 days;\n        uint256 interest = interestManager.calculateInterest(loans[msg.sender], loanDuration);\n        uint256 totalRepayment = loans[msg.sender] + interest;\n\n        require(amount >= totalRepayment, \"Insufficient amount to repay loan and interest\");\n        loans[msg.sender] = 0;\n        loanStartTimes[msg.sender] = 0;\n        require(token.transferFrom(msg.sender, address(this), totalRepayment), \"Repayment transfer failed\");\n\n        uint256 collateralToReturn = collaterals[msg.sender];\n        collaterals[msg.sender] = 0;\n        require(token.transfer(msg.sender, collateralToReturn), \"Collateral return failed\");\n    }\n}\n",
  "sourcePath": "/home/oliver/Proyects/my-truffle-project/aave-clone/contracts/LendingProtocol.sol",
  "compiler": {
    "name": "solc",
    "version": "0.8.27+commit.40a35a09.Emscripten.clang"
  },
  "schemaVersion": "3.4.16",
  "updatedAt": "2024-10-03T11:07:07.922Z",
  "devdoc": {
    "details": "Este contrato maneja los prstamos y los pagos de intereses.",
    "kind": "dev",
    "methods": {
      "borrow(uint256,uint256)": {
        "details": "Permite a los usuarios pedir prestado tokens proporcionando un colateral.",
        "params": {
          "amount": "La cantidad de tokens a pedir prestado.",
          "collateralAmount": "La cantidad de tokens a proporcionar como colateral."
        }
      },
      "constructor": {
        "details": "Constructor que inicializa el contrato con la direccin del token ERC20, el contrato de gestin de intereses y el orculo.",
        "params": {
          "_interestManager": "La direccin del contrato de gestin de intereses.",
          "_oracle": "La direccin del contrato del orculo.",
          "_token": "La direccin del contrato del token ERC20."
        }
      },
      "repay(uint256)": {
        "details": "Permite a los usuarios devolver los tokens prestados junto con los intereses y recuperar su colateral.",
        "params": {
          "amount": "La cantidad de tokens a devolver."
        }
      }
    },
    "title": "LendingProtocol",
    "version": 1
  },
  "userdoc": {
    "kind": "user",
    "methods": {},
    "version": 1
  }
}