{
  "contractName": "LiquidationContract",
  "abi": [
    {
      "inputs": [
        {
          "internalType": "contract IERC20",
          "name": "_token",
          "type": "address"
        },
        {
          "internalType": "contract LendingProtocol",
          "name": "_lendingProtocol",
          "type": "address"
        }
      ],
      "stateMutability": "nonpayable",
      "type": "constructor"
    },
    {
      "inputs": [],
      "name": "lendingProtocol",
      "outputs": [
        {
          "internalType": "contract LendingProtocol",
          "name": "",
          "type": "address"
        }
      ],
      "stateMutability": "view",
      "type": "function"
    },
    {
      "inputs": [],
      "name": "token",
      "outputs": [
        {
          "internalType": "contract IERC20",
          "name": "",
          "type": "address"
        }
      ],
      "stateMutability": "view",
      "type": "function"
    },
    {
      "inputs": [
        {
          "internalType": "address",
          "name": "borrower",
          "type": "address"
        }
      ],
      "name": "liquidate",
      "outputs": [],
      "stateMutability": "nonpayable",
      "type": "function"
    }
  ],
  "bytecode": "0x6080604052348015600e575f5ffd5b50604051610365380380610365833981016040819052602b916070565b5f80546001600160a01b039384166001600160a01b0319918216179091556001805492909316911617905560a3565b6001600160a01b0381168114606d575f5ffd5b50565b5f5f604083850312156080575f5ffd5b8251608981605a565b6020840151909250609881605a565b809150509250929050565b6102b5806100b05f395ff3fe608060405234801561000f575f5ffd5b506004361061003f575f3560e01c80632f8655681461004357806384436d3e14610058578063fc0c546a14610087575b5f5ffd5b61005661005136600461021c565b610099565b005b60015461006b906001600160a01b031681565b6040516001600160a01b03909116815260200160405180910390f35b5f5461006b906001600160a01b031681565b6001546040516373b4086b60e01b81526001600160a01b0383811660048301525f9216906373b4086b90602401602060405180830381865afa1580156100e1573d5f5f3e3d5ffd5b505050506040513d601f19601f820116820180604052508101906101059190610249565b5f546040516323b872dd60e01b8152336004820152306024820152604481018390529192506001600160a01b0316906323b872dd906064016020604051808303815f875af1158015610159573d5f5f3e3d5ffd5b505050506040513d601f19601f8201168201806040525081019061017d9190610260565b6101bf5760405162461bcd60e51b815260206004820152600f60248201526e151c985b9cd9995c8819985a5b1959608a1b604482015260640160405180910390fd5b600154604051631b8fec7360e11b8152600481018390526001600160a01b039091169063371fd8e6906024015f604051808303815f87803b158015610202575f5ffd5b505af1158015610214573d5f5f3e3d5ffd5b505050505050565b5f6020828403121561022c575f5ffd5b81356001600160a01b0381168114610242575f5ffd5b9392505050565b5f60208284031215610259575f5ffd5b5051919050565b5f60208284031215610270575f5ffd5b81518015158114610242575f5ffdfea26469706673582212204cdd7614f119f343b11f86253621ed19c341322a3fd99553d9abe2ce3601156264736f6c634300081b0033",
  "immutableReferences": {},
  "source": "// SPDX-License-Identifier: MIT\npragma solidity ^0.8.27;\n\nimport \"@openzeppelin/contracts/token/ERC20/IERC20.sol\";\n\ncontract LendingProtocol {\n    IERC20 public token;\n    mapping(address => uint256) public loans;\n\n    constructor(IERC20 _token) {\n        token = _token;\n    }\n\n    function borrow(uint256 amount) public {\n        // Implementar lgica de prstamo y colateral\n        loans[msg.sender] += amount;\n        require(token.transfer(msg.sender, amount), \"Transfer failed\");\n    }\n\n    function repay(uint256 amount) public {\n        require(loans[msg.sender] >= amount, \"Overpaying loan\");\n        loans[msg.sender] -= amount;\n        require(token.transferFrom(msg.sender, address(this), amount), \"Transfer failed\");\n    }\n}\n\ncontract LiquidationContract {IERC20 public token;\n    LendingProtocol public lendingProtocol;\n\n    constructor(IERC20 _token, LendingProtocol _lendingProtocol) {\n        token = _token;\n        lendingProtocol = _lendingProtocol;\n    }\n\n    function liquidate(address borrower) public {\n        uint256 loanAmount = lendingProtocol.loans(borrower);\n        require(token.transferFrom(msg.sender, address(this), loanAmount), \"Transfer failed\");\n        lendingProtocol.repay(loanAmount);\n    }\n}\n",
  "sourcePath": "/home/oliver/Proyects/my-truffle-project/aave-clone/contracts/LiquidationContract.sol",
  "compiler": {
    "name": "solc",
    "version": "0.8.27+commit.40a35a09.Emscripten.clang"
  },
  "schemaVersion": "3.4.16",
  "updatedAt": "2024-10-03T11:00:27.474Z",
  "devdoc": {
    "kind": "dev",
    "methods": {},
    "version": 1
  },
  "userdoc": {
    "kind": "user",
    "methods": {},
    "version": 1
  }
}