{
  "contractName": "AaveClone",
  "abi": [
    {
      "inputs": [
        {
          "internalType": "address",
          "name": "",
          "type": "address"
        }
      ],
      "name": "balances",
      "outputs": [
        {
          "internalType": "uint256",
          "name": "",
          "type": "uint256"
        }
      ],
      "stateMutability": "view",
      "type": "function"
    },
    {
      "inputs": [],
      "name": "deposit",
      "outputs": [],
      "stateMutability": "payable",
      "type": "function"
    },
    {
      "inputs": [
        {
          "internalType": "uint256",
          "name": "amount",
          "type": "uint256"
        }
      ],
      "name": "withdraw",
      "outputs": [],
      "stateMutability": "nonpayable",
      "type": "function"
    },
    {
      "inputs": [],
      "name": "getBalance",
      "outputs": [
        {
          "internalType": "uint256",
          "name": "",
          "type": "uint256"
        }
      ],
      "stateMutability": "view",
      "type": "function"
    }
  ],
  "bytecode": "0x608060405234801561000f575f80fd5b506104ed8061001d5f395ff3fe60806040526004361061003e575f3560e01c806312065fe01461004257806327e235e31461006c5780632e1a7d4d146100a8578063d0e30db0146100d0575b5f80fd5b34801561004d575f80fd5b506100566100da565b60405161006391906102b5565b60405180910390f35b348015610077575f80fd5b50610092600480360381019061008d919061032c565b61011d565b60405161009f91906102b5565b60405180910390f35b3480156100b3575f80fd5b506100ce60048036038101906100c99190610381565b610131565b005b6100d8610249565b005b5f805f3373ffffffffffffffffffffffffffffffffffffffff1673ffffffffffffffffffffffffffffffffffffffff1681526020019081526020015f2054905090565b5f602052805f5260405f205f915090505481565b805f803373ffffffffffffffffffffffffffffffffffffffff1673ffffffffffffffffffffffffffffffffffffffff1681526020019081526020015f205410156101b0576040517f08c379a00000000000000000000000000000000000000000000000000000000081526004016101a790610406565b60405180910390fd5b805f803373ffffffffffffffffffffffffffffffffffffffff1673ffffffffffffffffffffffffffffffffffffffff1681526020019081526020015f205f8282546101fb9190610451565b925050819055503373ffffffffffffffffffffffffffffffffffffffff166108fc8290811502906040515f60405180830381858888f19350505050158015610245573d5f803e3d5ffd5b5050565b345f803373ffffffffffffffffffffffffffffffffffffffff1673ffffffffffffffffffffffffffffffffffffffff1681526020019081526020015f205f8282546102949190610484565b92505081905550565b5f819050919050565b6102af8161029d565b82525050565b5f6020820190506102c85f8301846102a6565b92915050565b5f80fd5b5f73ffffffffffffffffffffffffffffffffffffffff82169050919050565b5f6102fb826102d2565b9050919050565b61030b816102f1565b8114610315575f80fd5b50565b5f8135905061032681610302565b92915050565b5f60208284031215610341576103406102ce565b5b5f61034e84828501610318565b91505092915050565b6103608161029d565b811461036a575f80fd5b50565b5f8135905061037b81610357565b92915050565b5f60208284031215610396576103956102ce565b5b5f6103a38482850161036d565b91505092915050565b5f82825260208201905092915050565b7f496e73756666696369656e742062616c616e63650000000000000000000000005f82015250565b5f6103f06014836103ac565b91506103fb826103bc565b602082019050919050565b5f6020820190508181035f83015261041d816103e4565b9050919050565b7f4e487b71000000000000000000000000000000000000000000000000000000005f52601160045260245ffd5b5f61045b8261029d565b91506104668361029d565b925082820390508181111561047e5761047d610424565b5b92915050565b5f61048e8261029d565b91506104998361029d565b92508282019050808211156104b1576104b0610424565b5b9291505056fea26469706673582212206d5bbe1ed97346d5a8321c1b594d0cf5310ca081b5d6d56126b610aa3ac6609364736f6c63430008140033",
  "immutableReferences": {},
  "source": "// SPDX-License-Identifier: MIT\npragma solidity ^0.8.20;\ncontract AaveClone {\n    mapping(address => uint256) public balances;\n\n    function deposit() public payable {\n        balances[msg.sender] += msg.value;\n    }\n\n    function withdraw(uint256 amount) public {\n        require(balances[msg.sender] >= amount, \"Insufficient balance\");\n        balances[msg.sender] -= amount;\n        payable(msg.sender).transfer(amount);\n    }\n\n    function getBalance() public view returns (uint256) {\n        return balances[msg.sender];\n    }\n\n}\n",
  "sourcePath": "/home/oliver/Proyects/my-truffle-project/aave-clone/contracts/AaveClone.sol",
  "compiler": {
    "name": "solc",
    "version": "0.8.20+commit.a1b79de6.Emscripten.clang"
  },
  "schemaVersion": "3.4.16",
  "updatedAt": "2024-10-03T07:32:56.808Z",
  "devdoc": {
    "kind": "dev",
    "methods": {},
    "version": 1
  },
  "userdoc": {
    "kind": "user",
    "methods": {},
    "version": 1
  }
}