{
  "contractName": "DepositContract",
  "abi": [
    {
      "inputs": [
        {
          "internalType": "contract IERC20",
          "name": "_token",
          "type": "address"
        }
      ],
      "stateMutability": "nonpayable",
      "type": "constructor"
    },
    {
      "inputs": [
        {
          "internalType": "address",
          "name": "",
          "type": "address"
        }
      ],
      "name": "balances",
      "outputs": [
        {
          "internalType": "uint256",
          "name": "",
          "type": "uint256"
        }
      ],
      "stateMutability": "view",
      "type": "function"
    },
    {
      "inputs": [],
      "name": "token",
      "outputs": [
        {
          "internalType": "contract IERC20",
          "name": "",
          "type": "address"
        }
      ],
      "stateMutability": "view",
      "type": "function"
    },
    {
      "inputs": [
        {
          "internalType": "uint256",
          "name": "amount",
          "type": "uint256"
        }
      ],
      "name": "deposit",
      "outputs": [],
      "stateMutability": "nonpayable",
      "type": "function"
    },
    {
      "inputs": [
        {
          "internalType": "uint256",
          "name": "amount",
          "type": "uint256"
        }
      ],
      "name": "withdraw",
      "outputs": [],
      "stateMutability": "nonpayable",
      "type": "function"
    },
    {
      "inputs": [
        {
          "internalType": "address",
          "name": "user",
          "type": "address"
        }
      ],
      "name": "getBalance",
      "outputs": [
        {
          "internalType": "uint256",
          "name": "",
          "type": "uint256"
        }
      ],
      "stateMutability": "view",
      "type": "function"
    }
  ],
  "bytecode": "0x6080604052348015600e575f5ffd5b50604051610443380380610443833981016040819052602b91604e565b5f80546001600160a01b0319166001600160a01b03929092169190911790556079565b5f60208284031215605d575f5ffd5b81516001600160a01b03811681146072575f5ffd5b9392505050565b6103bd806100865f395ff3fe608060405234801561000f575f5ffd5b5060043610610055575f3560e01c806327e235e3146100595780632e1a7d4d1461008b578063b6b55f25146100a0578063f8b2cb4f146100b3578063fc0c546a146100db575b5f5ffd5b6100786100673660046102e4565b60016020525f908152604090205481565b6040519081526020015b60405180910390f35b61009e610099366004610311565b610105565b005b61009e6100ae366004610311565b6101f7565b6100786100c13660046102e4565b6001600160a01b03165f9081526001602052604090205490565b5f546100ed906001600160a01b031681565b6040516001600160a01b039091168152602001610082565b335f9081526001602052604090205481111561015f5760405162461bcd60e51b8152602060048201526014602482015273496e73756666696369656e742062616c616e636560601b60448201526064015b60405180910390fd5b335f908152600160205260408120805483929061017d90849061033c565b90915550505f5460405163a9059cbb60e01b8152336004820152602481018390526001600160a01b039091169063a9059cbb906044016020604051808303815f875af11580156101cf573d5f5f3e3d5ffd5b505050506040513d601f19601f820116820180604052508101906101f39190610355565b5050565b5f81116102465760405162461bcd60e51b815260206004820152601d60248201527f416d6f756e74206d7573742062652067726561746572207468616e20300000006044820152606401610156565b5f546040516323b872dd60e01b8152336004820152306024820152604481018390526001600160a01b03909116906323b872dd906064016020604051808303815f875af1158015610299573d5f5f3e3d5ffd5b505050506040513d601f19601f820116820180604052508101906102bd9190610355565b50335f90815260016020526040812080548392906102dc908490610374565b909155505050565b5f602082840312156102f4575f5ffd5b81356001600160a01b038116811461030a575f5ffd5b9392505050565b5f60208284031215610321575f5ffd5b5035919050565b634e487b7160e01b5f52601160045260245ffd5b8181038181111561034f5761034f610328565b92915050565b5f60208284031215610365575f5ffd5b8151801515811461030a575f5ffd5b8082018082111561034f5761034f61032856fea264697066735822122012e4e0417af197928c3ca6731ee037a7794ee83aded5dddc1841dc571e20109164736f6c634300081b0033",
  "immutableReferences": {},
  "source": "// SPDX-License-Identifier: MIT\npragma solidity ^0.8.27;\n\nimport \"@openzeppelin/contracts/token/ERC20/IERC20.sol\";\n\n/// @title DepositContract\n/// @dev Este contrato maneja los depsitos y retiros de tokens ERC20.\ncontract DepositContract {\n    IERC20 public token;\n    mapping(address => uint256)\n    public balances;\n\n/// @dev Constructor que inicializa el contrato con la direccin del token ERC20.\n/// @param _token La direccin del contrato del token ERC20.\n    constructor(IERC20 _token) {\n        token = _token;\n    }\n\n/// @dev Permite a los usuarios depositar tokens en el contrato.\n/// @param amount La cantidad de tokens a depositar.\n    function deposit(uint256 amount) public {\n        require(amount > 0, \"Amount must be greater than 0\");\n        token.transferFrom(msg.sender, address(this), amount);\n        balances[msg.sender] += amount;\n    }\n\n/// @dev Permite a los usuarios retirar tokens del contrato.\n/// @param amount La cantidad de tokens a retirar.\n    function withdraw(uint256 amount) public {\n        require(amount <= balances[msg.sender], \"Insufficient balance\");\n        balances[msg.sender] -= amount;\n        token.transfer(msg.sender, amount);\n    }\n\n/// @dev Devuelve el balance de un usuario.\n/// @param user La direccin del usuario.\n/// @return El balance del usuario.\n    function getBalance(address user) public view returns (uint256) {\n        return balances[user];\n    }\n}\n",
  "sourcePath": "/home/oliver/Proyects/my-truffle-project/aave-clone/contracts/DepositContract.sol",
  "compiler": {
    "name": "solc",
    "version": "0.8.27+commit.40a35a09.Emscripten.clang"
  },
  "schemaVersion": "3.4.16",
  "updatedAt": "2024-10-03T11:00:27.467Z",
  "devdoc": {
    "details": "Este contrato maneja los depsitos y retiros de tokens ERC20.",
    "kind": "dev",
    "methods": {
      "constructor": {
        "details": "Constructor que inicializa el contrato con la direccin del token ERC20.",
        "params": {
          "_token": "La direccin del contrato del token ERC20."
        }
      },
      "deposit(uint256)": {
        "details": "Permite a los usuarios depositar tokens en el contrato.",
        "params": {
          "amount": "La cantidad de tokens a depositar."
        }
      },
      "getBalance(address)": {
        "details": "Devuelve el balance de un usuario.",
        "params": {
          "user": "La direccin del usuario."
        },
        "returns": {
          "_0": "El balance del usuario."
        }
      },
      "withdraw(uint256)": {
        "details": "Permite a los usuarios retirar tokens del contrato.",
        "params": {
          "amount": "La cantidad de tokens a retirar."
        }
      }
    },
    "title": "DepositContract",
    "version": 1
  },
  "userdoc": {
    "kind": "user",
    "methods": {},
    "version": 1
  }
}