{
  "contractName": "InterestManager",
  "abi": [
    {
      "inputs": [
        {
          "internalType": "uint256",
          "name": "_annualInterestRate",
          "type": "uint256"
        }
      ],
      "stateMutability": "nonpayable",
      "type": "constructor"
    },
    {
      "inputs": [],
      "name": "annualInterestRate",
      "outputs": [
        {
          "internalType": "uint256",
          "name": "",
          "type": "uint256"
        }
      ],
      "stateMutability": "view",
      "type": "function"
    },
    {
      "inputs": [
        {
          "internalType": "uint256",
          "name": "principal",
          "type": "uint256"
        },
        {
          "internalType": "uint256",
          "name": "timeInDays",
          "type": "uint256"
        }
      ],
      "name": "calculateInterest",
      "outputs": [
        {
          "internalType": "uint256",
          "name": "",
          "type": "uint256"
        }
      ],
      "stateMutability": "view",
      "type": "function"
    }
  ],
  "bytecode": "0x6080604052348015600e575f5ffd5b5060405161016b38038061016b833981016040819052602b916031565b5f556047565b5f602082840312156040575f5ffd5b5051919050565b610117806100545f395ff3fe6080604052348015600e575f5ffd5b50600436106030575f3560e01c80631a9703da146034578063efdd7c0714604d575b5f5ffd5b603b5f5481565b60405190815260200160405180910390f35b603b60583660046082565b5f6237b1d0825f54856069919060a1565b6071919060a1565b6079919060c3565b90505b92915050565b5f5f604083850312156092575f5ffd5b50508035926020909101359150565b8082028115828204841417607c57634e487b7160e01b5f52601160045260245ffd5b5f8260dc57634e487b7160e01b5f52601260045260245ffd5b50049056fea26469706673582212205495650a2fe8fce629a362098c8ba298d2f5ee2389555df9d553e41ad63ed97a64736f6c634300081b0033",
  "immutableReferences": {},
  "source": "// SPDX-License-Identifier: MIT\npragma solidity ^0.8.27;\n\ncontract InterestManager {\n    uint256 public annualInterestRate; // Porcentaje de interés anual en base 10000 (p.ej., 500 = 5%)\n\n    constructor(uint256 _annualInterestRate) {\n        annualInterestRate = _annualInterestRate;\n    }\n\n    function calculateInterest(uint256 principal, uint256 timeInDays) public view returns (uint256) {\n        // Interés simple: (principal * tasa * tiempo) / (100 * 365)\n        return (principal * annualInterestRate * timeInDays) / (10000 * 365);\n    }\n}\n\n",
  "sourcePath": "/home/oliver/Proyects/my-truffle-project/aave-clone/contracts/InterestManager.sol",
  "compiler": {
    "name": "solc",
    "version": "0.8.27+commit.40a35a09.Emscripten.clang"
  },
  "schemaVersion": "3.4.16",
  "updatedAt": "2024-10-03T11:00:27.470Z",
  "devdoc": {
    "kind": "dev",
    "methods": {},
    "version": 1
  },
  "userdoc": {
    "kind": "user",
    "methods": {},
    "version": 1
  }
}