{
  "contractName": "Oracle",
  "abi": [
    {
      "inputs": [
        {
          "internalType": "string",
          "name": "",
          "type": "string"
        }
      ],
      "name": "assetPrices",
      "outputs": [
        {
          "internalType": "uint256",
          "name": "",
          "type": "uint256"
        }
      ],
      "stateMutability": "view",
      "type": "function"
    },
    {
      "inputs": [
        {
          "internalType": "string",
          "name": "asset",
          "type": "string"
        },
        {
          "internalType": "uint256",
          "name": "price",
          "type": "uint256"
        }
      ],
      "name": "setAssetPrice",
      "outputs": [],
      "stateMutability": "nonpayable",
      "type": "function"
    },
    {
      "inputs": [
        {
          "internalType": "string",
          "name": "asset",
          "type": "string"
        }
      ],
      "name": "getAssetPrice",
      "outputs": [
        {
          "internalType": "uint256",
          "name": "",
          "type": "uint256"
        }
      ],
      "stateMutability": "view",
      "type": "function"
    }
  ],
  "bytecode": "0x6080604052348015600e575f5ffd5b506102588061001c5f395ff3fe608060405234801561000f575f5ffd5b506004361061003f575f3560e01c80632aedd0eb14610043578063b78107ca14610068578063f91728881461007d575b5f5ffd5b610056610051366004610190565b6100a7565b60405190815260200160405180910390f35b61007b6100763660046101ca565b6100cd565b005b61005661008b366004610190565b80516020818301810180515f8252928201919093012091525481565b5f5f826040516100b7919061020c565b9081526020016040518091039020549050919050565b805f836040516100dd919061020c565b908152604051908190036020019020555050565b634e487b7160e01b5f52604160045260245ffd5b5f82601f830112610114575f5ffd5b813567ffffffffffffffff81111561012e5761012e6100f1565b604051601f8201601f19908116603f0116810167ffffffffffffffff8111828210171561015d5761015d6100f1565b604052818152838201602001851015610174575f5ffd5b816020850160208301375f918101602001919091529392505050565b5f602082840312156101a0575f5ffd5b813567ffffffffffffffff8111156101b6575f5ffd5b6101c284828501610105565b949350505050565b5f5f604083850312156101db575f5ffd5b823567ffffffffffffffff8111156101f1575f5ffd5b6101fd85828601610105565b95602094909401359450505050565b5f82518060208501845e5f92019182525091905056fea264697066735822122081d27f49d384d55775339ad6dc95ab9b76137fb4547171170a61a8c7b48b7ad864736f6c634300081b0033",
  "immutableReferences": {},
  "source": "// SPDX-License-Identifier: MIT\npragma solidity ^0.8.27;\n\n/// @title Oracle\n/// @dev Este contrato proporciona el valor actual de los activos.\ncontract Oracle {\n    mapping(string => uint256)\n    public assetPrices;\n\n/// @dev Establece el precio de un activo.\n/// @param asset El nombre del activo.\n/// @param price El precio del activo.\n    function setAssetPrice(string memory asset, uint256 price) public {\n        assetPrices[asset] = price;\n    }\n\n/// @dev Obtiene el precio de un activo.\n/// @param asset El nombre del activo.\n/// @return El precio del activo.\n    function getAssetPrice(string memory asset) public view returns (uint256) {\n        return assetPrices[asset];\n    }\n}\n",
  "sourcePath": "/home/oliver/Proyects/my-truffle-project/aave-clone/contracts/Oracle.sol",
  "compiler": {
    "name": "solc",
    "version": "0.8.27+commit.40a35a09.Emscripten.clang"
  },
  "schemaVersion": "3.4.16",
  "updatedAt": "2024-10-03T11:00:27.483Z",
  "devdoc": {
    "details": "Este contrato proporciona el valor actual de los activos.",
    "kind": "dev",
    "methods": {
      "getAssetPrice(string)": {
        "details": "Obtiene el precio de un activo.",
        "params": {
          "asset": "El nombre del activo."
        },
        "returns": {
          "_0": "El precio del activo."
        }
      },
      "setAssetPrice(string,uint256)": {
        "details": "Establece el precio de un activo.",
        "params": {
          "asset": "El nombre del activo.",
          "price": "El precio del activo."
        }
      }
    },
    "title": "Oracle",
    "version": 1
  },
  "userdoc": {
    "kind": "user",
    "methods": {},
    "version": 1
  }
}